{
  "_format": "hh-sol-artifact-1",
  "contractName": "CrowdFunding",
  "sourceName": "contracts/CrowdFunding.sol",
  "abi": [
    {
      "inputs": [
        {
          "internalType": "uint256",
          "name": "",
          "type": "uint256"
        }
      ],
      "name": "campaigns",
      "outputs": [
        {
          "internalType": "address",
          "name": "owner",
          "type": "address"
        },
        {
          "internalType": "string",
          "name": "title",
          "type": "string"
        },
        {
          "internalType": "string",
          "name": "description",
          "type": "string"
        },
        {
          "internalType": "uint256",
          "name": "target",
          "type": "uint256"
        },
        {
          "internalType": "uint256",
          "name": "deadline",
          "type": "uint256"
        },
        {
          "internalType": "string",
          "name": "image",
          "type": "string"
        },
        {
          "internalType": "uint256",
          "name": "amountCollected",
          "type": "uint256"
        }
      ],
      "stateMutability": "view",
      "type": "function"
    },
    {
      "inputs": [
        {
          "internalType": "address",
          "name": "_owner",
          "type": "address"
        },
        {
          "internalType": "string",
          "name": "_title",
          "type": "string"
        },
        {
          "internalType": "string",
          "name": "_description",
          "type": "string"
        },
        {
          "internalType": "uint256",
          "name": "_target",
          "type": "uint256"
        },
        {
          "internalType": "uint256",
          "name": "_deadline",
          "type": "uint256"
        },
        {
          "internalType": "string",
          "name": "_image",
          "type": "string"
        }
      ],
      "name": "createCampaign",
      "outputs": [
        {
          "internalType": "uint256",
          "name": "",
          "type": "uint256"
        }
      ],
      "stateMutability": "nonpayable",
      "type": "function"
    },
    {
      "inputs": [
        {
          "internalType": "uint256",
          "name": "_id",
          "type": "uint256"
        },
        {
          "internalType": "uint256",
          "name": "_amount",
          "type": "uint256"
        },
        {
          "internalType": "address",
          "name": "_donatorPublicKey",
          "type": "address"
        }
      ],
      "name": "donateToCampaign",
      "outputs": [],
      "stateMutability": "payable",
      "type": "function"
    },
    {
      "inputs": [],
      "name": "getCampaigns",
      "outputs": [
        {
          "components": [
            {
              "internalType": "address",
              "name": "owner",
              "type": "address"
            },
            {
              "internalType": "string",
              "name": "title",
              "type": "string"
            },
            {
              "internalType": "string",
              "name": "description",
              "type": "string"
            },
            {
              "internalType": "uint256",
              "name": "target",
              "type": "uint256"
            },
            {
              "internalType": "uint256",
              "name": "deadline",
              "type": "uint256"
            },
            {
              "internalType": "string",
              "name": "image",
              "type": "string"
            },
            {
              "internalType": "uint256",
              "name": "amountCollected",
              "type": "uint256"
            },
            {
              "internalType": "address[]",
              "name": "donators",
              "type": "address[]"
            },
            {
              "internalType": "uint256[]",
              "name": "donations",
              "type": "uint256[]"
            }
          ],
          "internalType": "struct CrowdFunding.Campaign[]",
          "name": "",
          "type": "tuple[]"
        }
      ],
      "stateMutability": "view",
      "type": "function"
    },
    {
      "inputs": [
        {
          "internalType": "uint256",
          "name": "_id",
          "type": "uint256"
        }
      ],
      "name": "getDonators",
      "outputs": [
        {
          "internalType": "address[]",
          "name": "",
          "type": "address[]"
        },
        {
          "internalType": "uint256[]",
          "name": "",
          "type": "uint256[]"
        }
      ],
      "stateMutability": "view",
      "type": "function"
    },
    {
      "inputs": [],
      "name": "numberOfCampaigns",
      "outputs": [
        {
          "internalType": "uint256",
          "name": "",
          "type": "uint256"
        }
      ],
      "stateMutability": "view",
      "type": "function"
    }
  ],
  "bytecode": "0x6080604052600060015534801561001557600080fd5b50611972806100256000396000f3fe6080604052600436106100555760003560e01c806307ca140d1461005a5780630fa91fa914610085578063141961bc146100c35780639943e3a114610106578063a292840714610143578063a6b036331461015f575b600080fd5b34801561006657600080fd5b5061006f61018a565b60405161007c9190610b66565b60405180910390f35b34801561009157600080fd5b506100ac60048036038101906100a79190610bc1565b610190565b6040516100ba929190610d9c565b60405180910390f35b3480156100cf57600080fd5b506100ea60048036038101906100e59190610bc1565b610295565b6040516100fd9796959493929190610e72565b60405180910390f35b34801561011257600080fd5b5061012d60048036038101906101289190611057565b61048f565b60405161013a9190610b66565b60405180910390f35b61015d60048036038101906101589190611138565b6105b6565b005b34801561016b57600080fd5b5061017461071b565b6040516101819190611456565b60405180910390f35b60015481565b6060806000806000858152602001908152602001600020905080600701816008018180548060200260200160405190810160405280929190818152602001828054801561023257602002820191906000526020600020905b8160009054906101000a900473ffffffffffffffffffffffffffffffffffffffff1673ffffffffffffffffffffffffffffffffffffffff16815260200190600101908083116101e8575b505050505091508080548060200260200160405190810160405280929190818152602001828054801561028457602002820191906000526020600020905b815481526020019060010190808311610270575b505050505090509250925050915091565b60006020528060005260406000206000915090508060000160009054906101000a900473ffffffffffffffffffffffffffffffffffffffff16908060010180546102de906114a7565b80601f016020809104026020016040519081016040528092919081815260200182805461030a906114a7565b80156103575780601f1061032c57610100808354040283529160200191610357565b820191906000526020600020905b81548152906001019060200180831161033a57829003601f168201915b50505050509080600201805461036c906114a7565b80601f0160208091040260200160405190810160405280929190818152602001828054610398906114a7565b80156103e55780601f106103ba576101008083540402835291602001916103e5565b820191906000526020600020905b8154815290600101906020018083116103c857829003601f168201915b505050505090806003015490806004015490806005018054610406906114a7565b80601f0160208091040260200160405190810160405280929190818152602001828054610432906114a7565b801561047f5780601f106104545761010080835404028352916020019161047f565b820191906000526020600020905b81548152906001019060200180831161046257829003601f168201915b5050505050908060060154905087565b60008060008060015481526020019081526020016000209050428160040154106104ee576040517f08c379a00000000000000000000000000000000000000000000000000000000081526004016104e59061154a565b60405180910390fd5b878160000160006101000a81548173ffffffffffffffffffffffffffffffffffffffff021916908373ffffffffffffffffffffffffffffffffffffffff160217905550868160010190816105429190611716565b50858160020190816105549190611716565b50848160030181905550838160040181905550828160050190816105789190611716565b50600081600601819055506001600081548092919061059690611817565b9190505550600180546105a9919061185f565b9150509695505050505050565b60008290506000806000868152602001908152602001600020905080600701839080600181540180825580915050600190039060005260206000200160009091909190916101000a81548173ffffffffffffffffffffffffffffffffffffffff021916908373ffffffffffffffffffffffffffffffffffffffff1602179055508060080182908060018154018082558091505060019003906000526020600020016000909190919091505560008160000160009054906101000a900473ffffffffffffffffffffffffffffffffffffffff1673ffffffffffffffffffffffffffffffffffffffff16836040516106ab906118c4565b60006040518083038185875af1925050503d80600081146106e8576040519150601f19603f3d011682016040523d82523d6000602084013e6106ed565b606091505b505090508015610713578282600601600082825461070b91906118d9565b925050819055505b505050505050565b6060600060015467ffffffffffffffff81111561073b5761073a610f2c565b5b60405190808252806020026020018201604052801561077457816020015b610761610aeb565b8152602001906001900390816107595790505b50905060005b600154811015610ae3576000806000838152602001908152602001600020905080604051806101200160405290816000820160009054906101000a900473ffffffffffffffffffffffffffffffffffffffff1673ffffffffffffffffffffffffffffffffffffffff1673ffffffffffffffffffffffffffffffffffffffff16815260200160018201805461080d906114a7565b80601f0160208091040260200160405190810160405280929190818152602001828054610839906114a7565b80156108865780601f1061085b57610100808354040283529160200191610886565b820191906000526020600020905b81548152906001019060200180831161086957829003601f168201915b5050505050815260200160028201805461089f906114a7565b80601f01602080910402602001604051908101604052809291908181526020018280546108cb906114a7565b80156109185780601f106108ed57610100808354040283529160200191610918565b820191906000526020600020905b8154815290600101906020018083116108fb57829003601f168201915b505050505081526020016003820154815260200160048201548152602001600582018054610945906114a7565b80601f0160208091040260200160405190810160405280929190818152602001828054610971906114a7565b80156109be5780601f10610993576101008083540402835291602001916109be565b820191906000526020600020905b8154815290600101906020018083116109a157829003601f168201915b505050505081526020016006820154815260200160078201805480602002602001604051908101604052809291908181526020018280548015610a5657602002820191906000526020600020905b8160009054906101000a900473ffffffffffffffffffffffffffffffffffffffff1673ffffffffffffffffffffffffffffffffffffffff1681526020019060010190808311610a0c575b5050505050815260200160088201805480602002602001604051908101604052809291908181526020018280548015610aae57602002820191906000526020600020905b815481526020019060010190808311610a9a575b505050505081525050838381518110610aca57610ac961190d565b5b602002602001018190525050808060010191505061077a565b508091505090565b604051806101200160405280600073ffffffffffffffffffffffffffffffffffffffff16815260200160608152602001606081526020016000815260200160008152602001606081526020016000815260200160608152602001606081525090565b6000819050919050565b610b6081610b4d565b82525050565b6000602082019050610b7b6000830184610b57565b92915050565b6000604051905090565b600080fd5b600080fd5b610b9e81610b4d565b8114610ba957600080fd5b50565b600081359050610bbb81610b95565b92915050565b600060208284031215610bd757610bd6610b8b565b5b6000610be584828501610bac565b91505092915050565b600081519050919050565b600082825260208201905092915050565b6000819050602082019050919050565b600073ffffffffffffffffffffffffffffffffffffffff82169050919050565b6000610c4582610c1a565b9050919050565b610c5581610c3a565b82525050565b6000610c678383610c4c565b60208301905092915050565b6000602082019050919050565b6000610c8b82610bee565b610c958185610bf9565b9350610ca083610c0a565b8060005b83811015610cd1578151610cb88882610c5b565b9750610cc383610c73565b925050600181019050610ca4565b5085935050505092915050565b600081519050919050565b600082825260208201905092915050565b6000819050602082019050919050565b610d1381610b4d565b82525050565b6000610d258383610d0a565b60208301905092915050565b6000602082019050919050565b6000610d4982610cde565b610d538185610ce9565b9350610d5e83610cfa565b8060005b83811015610d8f578151610d768882610d19565b9750610d8183610d31565b925050600181019050610d62565b5085935050505092915050565b60006040820190508181036000830152610db68185610c80565b90508181036020830152610dca8184610d3e565b90509392505050565b610ddc81610c3a565b82525050565b600081519050919050565b600082825260208201905092915050565b60005b83811015610e1c578082015181840152602081019050610e01565b60008484015250505050565b6000601f19601f8301169050919050565b6000610e4482610de2565b610e4e8185610ded565b9350610e5e818560208601610dfe565b610e6781610e28565b840191505092915050565b600060e082019050610e87600083018a610dd3565b8181036020830152610e998189610e39565b90508181036040830152610ead8188610e39565b9050610ebc6060830187610b57565b610ec96080830186610b57565b81810360a0830152610edb8185610e39565b9050610eea60c0830184610b57565b98975050505050505050565b610eff81610c3a565b8114610f0a57600080fd5b50565b600081359050610f1c81610ef6565b92915050565b600080fd5b600080fd5b7f4e487b7100000000000000000000000000000000000000000000000000000000600052604160045260246000fd5b610f6482610e28565b810181811067ffffffffffffffff82111715610f8357610f82610f2c565b5b80604052505050565b6000610f96610b81565b9050610fa28282610f5b565b919050565b600067ffffffffffffffff821115610fc257610fc1610f2c565b5b610fcb82610e28565b9050602081019050919050565b82818337600083830152505050565b6000610ffa610ff584610fa7565b610f8c565b90508281526020810184848401111561101657611015610f27565b5b611021848285610fd8565b509392505050565b600082601f83011261103e5761103d610f22565b5b813561104e848260208601610fe7565b91505092915050565b60008060008060008060c0878903121561107457611073610b8b565b5b600061108289828a01610f0d565b965050602087013567ffffffffffffffff8111156110a3576110a2610b90565b5b6110af89828a01611029565b955050604087013567ffffffffffffffff8111156110d0576110cf610b90565b5b6110dc89828a01611029565b94505060606110ed89828a01610bac565b93505060806110fe89828a01610bac565b92505060a087013567ffffffffffffffff81111561111f5761111e610b90565b5b61112b89828a01611029565b9150509295509295509295565b60008060006060848603121561115157611150610b8b565b5b600061115f86828701610bac565b935050602061117086828701610bac565b925050604061118186828701610f0d565b9150509250925092565b600081519050919050565b600082825260208201905092915050565b6000819050602082019050919050565b600082825260208201905092915050565b60006111d382610de2565b6111dd81856111b7565b93506111ed818560208601610dfe565b6111f681610e28565b840191505092915050565b600082825260208201905092915050565b600061121d82610bee565b6112278185611201565b935061123283610c0a565b8060005b8381101561126357815161124a8882610c5b565b975061125583610c73565b925050600181019050611236565b5085935050505092915050565b600082825260208201905092915050565b600061128c82610cde565b6112968185611270565b93506112a183610cfa565b8060005b838110156112d25781516112b98882610d19565b97506112c483610d31565b9250506001810190506112a5565b5085935050505092915050565b6000610120830160008301516112f86000860182610c4c565b506020830151848203602086015261131082826111c8565b9150506040830151848203604086015261132a82826111c8565b915050606083015161133f6060860182610d0a565b5060808301516113526080860182610d0a565b5060a083015184820360a086015261136a82826111c8565b91505060c083015161137f60c0860182610d0a565b5060e083015184820360e08601526113978282611212565b9150506101008301518482036101008601526113b38282611281565b9150508091505092915050565b60006113cc83836112df565b905092915050565b6000602082019050919050565b60006113ec8261118b565b6113f68185611196565b935083602082028501611408856111a7565b8060005b85811015611444578484038952815161142585826113c0565b9450611430836113d4565b925060208a0199505060018101905061140c565b50829750879550505050505092915050565b6000602082019050818103600083015261147081846113e1565b905092915050565b7f4e487b7100000000000000000000000000000000000000000000000000000000600052602260045260246000fd5b600060028204905060018216806114bf57607f821691505b6020821081036114d2576114d1611478565b5b50919050565b7f54686520646561646c696e652073686f756c642062652061206461746520696e60008201527f2074686520667574757265200000000000000000000000000000000000000000602082015250565b6000611534602c83610ded565b915061153f826114d8565b604082019050919050565b6000602082019050818103600083015261156381611527565b9050919050565b60008190508160005260206000209050919050565b60006020601f8301049050919050565b600082821b905092915050565b6000600883026115cc7fffffffffffffffffffffffffffffffffffffffffffffffffffffffffffffffff8261158f565b6115d6868361158f565b95508019841693508086168417925050509392505050565b6000819050919050565b600061161361160e61160984610b4d565b6115ee565b610b4d565b9050919050565b6000819050919050565b61162d836115f8565b6116416116398261161a565b84845461159c565b825550505050565b600090565b611656611649565b611661818484611624565b505050565b5b818110156116855761167a60008261164e565b600181019050611667565b5050565b601f8211156116ca5761169b8161156a565b6116a48461157f565b810160208510156116b3578190505b6116c76116bf8561157f565b830182611666565b50505b505050565b600082821c905092915050565b60006116ed600019846008026116cf565b1980831691505092915050565b600061170683836116dc565b9150826002028217905092915050565b61171f82610de2565b67ffffffffffffffff81111561173857611737610f2c565b5b61174282546114a7565b61174d828285611689565b600060209050601f831160018114611780576000841561176e578287015190505b61177885826116fa565b8655506117e0565b601f19841661178e8661156a565b60005b828110156117b657848901518255600182019150602085019450602081019050611791565b868310156117d357848901516117cf601f8916826116dc565b8355505b6001600288020188555050505b505050505050565b7f4e487b7100000000000000000000000000000000000000000000000000000000600052601160045260246000fd5b600061182282610b4d565b91507fffffffffffffffffffffffffffffffffffffffffffffffffffffffffffffffff8203611854576118536117e8565b5b600182019050919050565b600061186a82610b4d565b915061187583610b4d565b925082820390508181111561188d5761188c6117e8565b5b92915050565b600081905092915050565b50565b60006118ae600083611893565b91506118b98261189e565b600082019050919050565b60006118cf826118a1565b9150819050919050565b60006118e482610b4d565b91506118ef83610b4d565b9250828201905080821115611907576119066117e8565b5b92915050565b7f4e487b7100000000000000000000000000000000000000000000000000000000600052603260045260246000fdfea264697066735822122073a530b6300442ee5d1c36b8d97319a96afee16320a0c38daf6aba124452746d64736f6c63430008180033",
  "linkReferences": {},
  "deployedLinkReferences": {}
}