{
  "_format": "hh-sol-artifact-1",
  "contractName": "CrowdFunding",
  "sourceName": "contracts/CrowdFunding.sol",
  "abi": [
    {
      "inputs": [
        {
          "internalType": "uint256",
          "name": "",
          "type": "uint256"
        }
      ],
      "name": "campaigns",
      "outputs": [
        {
          "internalType": "address",
          "name": "owner",
          "type": "address"
        },
        {
          "internalType": "string",
          "name": "title",
          "type": "string"
        },
        {
          "internalType": "string",
          "name": "description",
          "type": "string"
        },
        {
          "internalType": "uint256",
          "name": "target",
          "type": "uint256"
        },
        {
          "internalType": "uint256",
          "name": "deadline",
          "type": "uint256"
        },
        {
          "internalType": "string",
          "name": "image",
          "type": "string"
        },
        {
          "internalType": "uint256",
          "name": "amountCollected",
          "type": "uint256"
        }
      ],
      "stateMutability": "view",
      "type": "function"
    },
    {
      "inputs": [
        {
          "internalType": "address",
          "name": "_owner",
          "type": "address"
        },
        {
          "internalType": "string",
          "name": "_title",
          "type": "string"
        },
        {
          "internalType": "string",
          "name": "_description",
          "type": "string"
        },
        {
          "internalType": "uint256",
          "name": "_target",
          "type": "uint256"
        },
        {
          "internalType": "uint256",
          "name": "_deadline",
          "type": "uint256"
        },
        {
          "internalType": "string",
          "name": "_image",
          "type": "string"
        }
      ],
      "name": "createCampaign",
      "outputs": [
        {
          "internalType": "uint256",
          "name": "",
          "type": "uint256"
        }
      ],
      "stateMutability": "nonpayable",
      "type": "function"
    },
    {
      "inputs": [
        {
          "internalType": "uint256",
          "name": "_id",
          "type": "uint256"
        }
      ],
      "name": "donateToCampaign",
      "outputs": [],
      "stateMutability": "payable",
      "type": "function"
    },
    {
      "inputs": [],
      "name": "getCampaigns",
      "outputs": [
        {
          "components": [
            {
              "internalType": "address",
              "name": "owner",
              "type": "address"
            },
            {
              "internalType": "string",
              "name": "title",
              "type": "string"
            },
            {
              "internalType": "string",
              "name": "description",
              "type": "string"
            },
            {
              "internalType": "uint256",
              "name": "target",
              "type": "uint256"
            },
            {
              "internalType": "uint256",
              "name": "deadline",
              "type": "uint256"
            },
            {
              "internalType": "string",
              "name": "image",
              "type": "string"
            },
            {
              "internalType": "uint256",
              "name": "amountCollected",
              "type": "uint256"
            },
            {
              "internalType": "address[]",
              "name": "donators",
              "type": "address[]"
            },
            {
              "internalType": "uint256[]",
              "name": "donations",
              "type": "uint256[]"
            }
          ],
          "internalType": "struct CrowdFunding.Campaign[]",
          "name": "",
          "type": "tuple[]"
        }
      ],
      "stateMutability": "view",
      "type": "function"
    },
    {
      "inputs": [
        {
          "internalType": "uint256",
          "name": "_id",
          "type": "uint256"
        }
      ],
      "name": "getDonators",
      "outputs": [
        {
          "internalType": "address[]",
          "name": "",
          "type": "address[]"
        },
        {
          "internalType": "uint256[]",
          "name": "",
          "type": "uint256[]"
        }
      ],
      "stateMutability": "view",
      "type": "function"
    },
    {
      "inputs": [],
      "name": "numberOfCampaigns",
      "outputs": [
        {
          "internalType": "uint256",
          "name": "",
          "type": "uint256"
        }
      ],
      "stateMutability": "view",
      "type": "function"
    }
  ],
  "bytecode": "0x6080604052600060015534801561001557600080fd5b5061191d806100256000396000f3fe6080604052600436106100555760003560e01c806307ca140d1461005a5780630fa91fa914610085578063141961bc146100c357806342a4fda8146101065780639943e3a114610122578063a6b036331461015f575b600080fd5b34801561006657600080fd5b5061006f61018a565b60405161007c9190610b64565b60405180910390f35b34801561009157600080fd5b506100ac60048036038101906100a79190610bbf565b610190565b6040516100ba929190610d9a565b60405180910390f35b3480156100cf57600080fd5b506100ea60048036038101906100e59190610bbf565b610295565b6040516100fd9796959493929190610e70565b60405180910390f35b610120600480360381019061011b9190610bbf565b61048f565b005b34801561012e57600080fd5b5061014960048036038101906101449190611055565b6105f2565b6040516101569190610b64565b60405180910390f35b34801561016b57600080fd5b50610174610719565b6040516101819190611401565b60405180910390f35b60015481565b6060806000806000858152602001908152602001600020905080600701816008018180548060200260200160405190810160405280929190818152602001828054801561023257602002820191906000526020600020905b8160009054906101000a900473ffffffffffffffffffffffffffffffffffffffff1673ffffffffffffffffffffffffffffffffffffffff16815260200190600101908083116101e8575b505050505091508080548060200260200160405190810160405280929190818152602001828054801561028457602002820191906000526020600020905b815481526020019060010190808311610270575b505050505090509250925050915091565b60006020528060005260406000206000915090508060000160009054906101000a900473ffffffffffffffffffffffffffffffffffffffff16908060010180546102de90611452565b80601f016020809104026020016040519081016040528092919081815260200182805461030a90611452565b80156103575780601f1061032c57610100808354040283529160200191610357565b820191906000526020600020905b81548152906001019060200180831161033a57829003601f168201915b50505050509080600201805461036c90611452565b80601f016020809104026020016040519081016040528092919081815260200182805461039890611452565b80156103e55780601f106103ba576101008083540402835291602001916103e5565b820191906000526020600020905b8154815290600101906020018083116103c857829003601f168201915b50505050509080600301549080600401549080600501805461040690611452565b80601f016020809104026020016040519081016040528092919081815260200182805461043290611452565b801561047f5780601f106104545761010080835404028352916020019161047f565b820191906000526020600020905b81548152906001019060200180831161046257829003601f168201915b5050505050908060060154905087565b60003490506000806000848152602001908152602001600020905080600701339080600181540180825580915050600190039060005260206000200160009091909190916101000a81548173ffffffffffffffffffffffffffffffffffffffff021916908373ffffffffffffffffffffffffffffffffffffffff1602179055508060080182908060018154018082558091505060019003906000526020600020016000909190919091505560008160000160009054906101000a900473ffffffffffffffffffffffffffffffffffffffff1673ffffffffffffffffffffffffffffffffffffffff1683604051610584906114b4565b60006040518083038185875af1925050503d80600081146105c1576040519150601f19603f3d011682016040523d82523d6000602084013e6105c6565b606091505b5050905080156105ec57828260060160008282546105e491906114f8565b925050819055505b50505050565b6000806000806001548152602001908152602001600020905042816004015410610651576040517f08c379a00000000000000000000000000000000000000000000000000000000081526004016106489061159e565b60405180910390fd5b878160000160006101000a81548173ffffffffffffffffffffffffffffffffffffffff021916908373ffffffffffffffffffffffffffffffffffffffff160217905550868160010190816106a5919061176a565b50858160020190816106b7919061176a565b50848160030181905550838160040181905550828160050190816106db919061176a565b5060008160060181905550600160008154809291906106f99061183c565b91905055506001805461070c9190611884565b9150509695505050505050565b6060600060015467ffffffffffffffff81111561073957610738610f2a565b5b60405190808252806020026020018201604052801561077257816020015b61075f610ae9565b8152602001906001900390816107575790505b50905060005b600154811015610ae1576000806000838152602001908152602001600020905080604051806101200160405290816000820160009054906101000a900473ffffffffffffffffffffffffffffffffffffffff1673ffffffffffffffffffffffffffffffffffffffff1673ffffffffffffffffffffffffffffffffffffffff16815260200160018201805461080b90611452565b80601f016020809104026020016040519081016040528092919081815260200182805461083790611452565b80156108845780601f1061085957610100808354040283529160200191610884565b820191906000526020600020905b81548152906001019060200180831161086757829003601f168201915b5050505050815260200160028201805461089d90611452565b80601f01602080910402602001604051908101604052809291908181526020018280546108c990611452565b80156109165780601f106108eb57610100808354040283529160200191610916565b820191906000526020600020905b8154815290600101906020018083116108f957829003601f168201915b50505050508152602001600382015481526020016004820154815260200160058201805461094390611452565b80601f016020809104026020016040519081016040528092919081815260200182805461096f90611452565b80156109bc5780601f10610991576101008083540402835291602001916109bc565b820191906000526020600020905b81548152906001019060200180831161099f57829003601f168201915b505050505081526020016006820154815260200160078201805480602002602001604051908101604052809291908181526020018280548015610a5457602002820191906000526020600020905b8160009054906101000a900473ffffffffffffffffffffffffffffffffffffffff1673ffffffffffffffffffffffffffffffffffffffff1681526020019060010190808311610a0a575b5050505050815260200160088201805480602002602001604051908101604052809291908181526020018280548015610aac57602002820191906000526020600020905b815481526020019060010190808311610a98575b505050505081525050838381518110610ac857610ac76118b8565b5b6020026020010181905250508080600101915050610778565b508091505090565b604051806101200160405280600073ffffffffffffffffffffffffffffffffffffffff16815260200160608152602001606081526020016000815260200160008152602001606081526020016000815260200160608152602001606081525090565b6000819050919050565b610b5e81610b4b565b82525050565b6000602082019050610b796000830184610b55565b92915050565b6000604051905090565b600080fd5b600080fd5b610b9c81610b4b565b8114610ba757600080fd5b50565b600081359050610bb981610b93565b92915050565b600060208284031215610bd557610bd4610b89565b5b6000610be384828501610baa565b91505092915050565b600081519050919050565b600082825260208201905092915050565b6000819050602082019050919050565b600073ffffffffffffffffffffffffffffffffffffffff82169050919050565b6000610c4382610c18565b9050919050565b610c5381610c38565b82525050565b6000610c658383610c4a565b60208301905092915050565b6000602082019050919050565b6000610c8982610bec565b610c938185610bf7565b9350610c9e83610c08565b8060005b83811015610ccf578151610cb68882610c59565b9750610cc183610c71565b925050600181019050610ca2565b5085935050505092915050565b600081519050919050565b600082825260208201905092915050565b6000819050602082019050919050565b610d1181610b4b565b82525050565b6000610d238383610d08565b60208301905092915050565b6000602082019050919050565b6000610d4782610cdc565b610d518185610ce7565b9350610d5c83610cf8565b8060005b83811015610d8d578151610d748882610d17565b9750610d7f83610d2f565b925050600181019050610d60565b5085935050505092915050565b60006040820190508181036000830152610db48185610c7e565b90508181036020830152610dc88184610d3c565b90509392505050565b610dda81610c38565b82525050565b600081519050919050565b600082825260208201905092915050565b60005b83811015610e1a578082015181840152602081019050610dff565b60008484015250505050565b6000601f19601f8301169050919050565b6000610e4282610de0565b610e4c8185610deb565b9350610e5c818560208601610dfc565b610e6581610e26565b840191505092915050565b600060e082019050610e85600083018a610dd1565b8181036020830152610e978189610e37565b90508181036040830152610eab8188610e37565b9050610eba6060830187610b55565b610ec76080830186610b55565b81810360a0830152610ed98185610e37565b9050610ee860c0830184610b55565b98975050505050505050565b610efd81610c38565b8114610f0857600080fd5b50565b600081359050610f1a81610ef4565b92915050565b600080fd5b600080fd5b7f4e487b7100000000000000000000000000000000000000000000000000000000600052604160045260246000fd5b610f6282610e26565b810181811067ffffffffffffffff82111715610f8157610f80610f2a565b5b80604052505050565b6000610f94610b7f565b9050610fa08282610f59565b919050565b600067ffffffffffffffff821115610fc057610fbf610f2a565b5b610fc982610e26565b9050602081019050919050565b82818337600083830152505050565b6000610ff8610ff384610fa5565b610f8a565b90508281526020810184848401111561101457611013610f25565b5b61101f848285610fd6565b509392505050565b600082601f83011261103c5761103b610f20565b5b813561104c848260208601610fe5565b91505092915050565b60008060008060008060c0878903121561107257611071610b89565b5b600061108089828a01610f0b565b965050602087013567ffffffffffffffff8111156110a1576110a0610b8e565b5b6110ad89828a01611027565b955050604087013567ffffffffffffffff8111156110ce576110cd610b8e565b5b6110da89828a01611027565b94505060606110eb89828a01610baa565b93505060806110fc89828a01610baa565b92505060a087013567ffffffffffffffff81111561111d5761111c610b8e565b5b61112989828a01611027565b9150509295509295509295565b600081519050919050565b600082825260208201905092915050565b6000819050602082019050919050565b600082825260208201905092915050565b600061117e82610de0565b6111888185611162565b9350611198818560208601610dfc565b6111a181610e26565b840191505092915050565b600082825260208201905092915050565b60006111c882610bec565b6111d281856111ac565b93506111dd83610c08565b8060005b8381101561120e5781516111f58882610c59565b975061120083610c71565b9250506001810190506111e1565b5085935050505092915050565b600082825260208201905092915050565b600061123782610cdc565b611241818561121b565b935061124c83610cf8565b8060005b8381101561127d5781516112648882610d17565b975061126f83610d2f565b925050600181019050611250565b5085935050505092915050565b6000610120830160008301516112a36000860182610c4a565b50602083015184820360208601526112bb8282611173565b915050604083015184820360408601526112d58282611173565b91505060608301516112ea6060860182610d08565b5060808301516112fd6080860182610d08565b5060a083015184820360a08601526113158282611173565b91505060c083015161132a60c0860182610d08565b5060e083015184820360e086015261134282826111bd565b91505061010083015184820361010086015261135e828261122c565b9150508091505092915050565b6000611377838361128a565b905092915050565b6000602082019050919050565b600061139782611136565b6113a18185611141565b9350836020820285016113b385611152565b8060005b858110156113ef57848403895281516113d0858261136b565b94506113db8361137f565b925060208a019950506001810190506113b7565b50829750879550505050505092915050565b6000602082019050818103600083015261141b818461138c565b905092915050565b7f4e487b7100000000000000000000000000000000000000000000000000000000600052602260045260246000fd5b6000600282049050600182168061146a57607f821691505b60208210810361147d5761147c611423565b5b50919050565b600081905092915050565b50565b600061149e600083611483565b91506114a98261148e565b600082019050919050565b60006114bf82611491565b9150819050919050565b7f4e487b7100000000000000000000000000000000000000000000000000000000600052601160045260246000fd5b600061150382610b4b565b915061150e83610b4b565b9250828201905080821115611526576115256114c9565b5b92915050565b7f54686520646561646c696e652073686f756c642062652061206461746520696e60008201527f2074686520667574757265200000000000000000000000000000000000000000602082015250565b6000611588602c83610deb565b91506115938261152c565b604082019050919050565b600060208201905081810360008301526115b78161157b565b9050919050565b60008190508160005260206000209050919050565b60006020601f8301049050919050565b600082821b905092915050565b6000600883026116207fffffffffffffffffffffffffffffffffffffffffffffffffffffffffffffffff826115e3565b61162a86836115e3565b95508019841693508086168417925050509392505050565b6000819050919050565b600061166761166261165d84610b4b565b611642565b610b4b565b9050919050565b6000819050919050565b6116818361164c565b61169561168d8261166e565b8484546115f0565b825550505050565b600090565b6116aa61169d565b6116b5818484611678565b505050565b5b818110156116d9576116ce6000826116a2565b6001810190506116bb565b5050565b601f82111561171e576116ef816115be565b6116f8846115d3565b81016020851015611707578190505b61171b611713856115d3565b8301826116ba565b50505b505050565b600082821c905092915050565b600061174160001984600802611723565b1980831691505092915050565b600061175a8383611730565b9150826002028217905092915050565b61177382610de0565b67ffffffffffffffff81111561178c5761178b610f2a565b5b6117968254611452565b6117a18282856116dd565b600060209050601f8311600181146117d457600084156117c2578287015190505b6117cc858261174e565b865550611834565b601f1984166117e2866115be565b60005b8281101561180a578489015182556001820191506020850194506020810190506117e5565b868310156118275784890151611823601f891682611730565b8355505b6001600288020188555050505b505050505050565b600061184782610b4b565b91507fffffffffffffffffffffffffffffffffffffffffffffffffffffffffffffffff8203611879576118786114c9565b5b600182019050919050565b600061188f82610b4b565b915061189a83610b4b565b92508282039050818111156118b2576118b16114c9565b5b92915050565b7f4e487b7100000000000000000000000000000000000000000000000000000000600052603260045260246000fdfea26469706673582212200f702610d5e3fdd04e3a28e74737b380fabdcdc212c5331a0edfc7645e2ee72264736f6c63430008180033",
  "linkReferences": {},
  "deployedLinkReferences": {}
}