{
  "_format": "hh-sol-artifact-1",
  "contractName": "CrowdFunding",
  "sourceName": "contracts/CrowdFunding.sol",
  "abi": [
    {
      "inputs": [
        {
          "internalType": "uint256",
          "name": "",
          "type": "uint256"
        }
      ],
      "name": "campaigns",
      "outputs": [
        {
          "internalType": "address",
          "name": "owner",
          "type": "address"
        },
        {
          "internalType": "string",
          "name": "title",
          "type": "string"
        },
        {
          "internalType": "string",
          "name": "description",
          "type": "string"
        },
        {
          "internalType": "uint256",
          "name": "target",
          "type": "uint256"
        },
        {
          "internalType": "uint256",
          "name": "deadline",
          "type": "uint256"
        },
        {
          "internalType": "string",
          "name": "image",
          "type": "string"
        },
        {
          "internalType": "uint256",
          "name": "amountCollected",
          "type": "uint256"
        }
      ],
      "stateMutability": "view",
      "type": "function"
    },
    {
      "inputs": [
        {
          "internalType": "address",
          "name": "_owner",
          "type": "address"
        },
        {
          "internalType": "string",
          "name": "_title",
          "type": "string"
        },
        {
          "internalType": "string",
          "name": "_description",
          "type": "string"
        },
        {
          "internalType": "uint256",
          "name": "_target",
          "type": "uint256"
        },
        {
          "internalType": "uint256",
          "name": "_deadline",
          "type": "uint256"
        },
        {
          "internalType": "string",
          "name": "_image",
          "type": "string"
        }
      ],
      "name": "createCampaign",
      "outputs": [
        {
          "internalType": "uint256",
          "name": "",
          "type": "uint256"
        }
      ],
      "stateMutability": "nonpayable",
      "type": "function"
    },
    {
      "inputs": [
        {
          "internalType": "uint256",
          "name": "_id",
          "type": "uint256"
        }
      ],
      "name": "donateToCampaign",
      "outputs": [],
      "stateMutability": "payable",
      "type": "function"
    },
    {
      "inputs": [
        {
          "internalType": "uint256",
          "name": "_id",
          "type": "uint256"
        }
      ],
      "name": "getCampaign",
      "outputs": [
        {
          "components": [
            {
              "internalType": "address",
              "name": "owner",
              "type": "address"
            },
            {
              "internalType": "string",
              "name": "title",
              "type": "string"
            },
            {
              "internalType": "string",
              "name": "description",
              "type": "string"
            },
            {
              "internalType": "uint256",
              "name": "target",
              "type": "uint256"
            },
            {
              "internalType": "uint256",
              "name": "deadline",
              "type": "uint256"
            },
            {
              "internalType": "string",
              "name": "image",
              "type": "string"
            },
            {
              "internalType": "uint256",
              "name": "amountCollected",
              "type": "uint256"
            },
            {
              "internalType": "address[]",
              "name": "donators",
              "type": "address[]"
            },
            {
              "internalType": "uint256[]",
              "name": "donations",
              "type": "uint256[]"
            }
          ],
          "internalType": "struct CrowdFunding.Campaign",
          "name": "",
          "type": "tuple"
        }
      ],
      "stateMutability": "view",
      "type": "function"
    },
    {
      "inputs": [],
      "name": "getCampaigns",
      "outputs": [
        {
          "components": [
            {
              "internalType": "address",
              "name": "owner",
              "type": "address"
            },
            {
              "internalType": "string",
              "name": "title",
              "type": "string"
            },
            {
              "internalType": "string",
              "name": "description",
              "type": "string"
            },
            {
              "internalType": "uint256",
              "name": "target",
              "type": "uint256"
            },
            {
              "internalType": "uint256",
              "name": "deadline",
              "type": "uint256"
            },
            {
              "internalType": "string",
              "name": "image",
              "type": "string"
            },
            {
              "internalType": "uint256",
              "name": "amountCollected",
              "type": "uint256"
            },
            {
              "internalType": "address[]",
              "name": "donators",
              "type": "address[]"
            },
            {
              "internalType": "uint256[]",
              "name": "donations",
              "type": "uint256[]"
            }
          ],
          "internalType": "struct CrowdFunding.Campaign[]",
          "name": "",
          "type": "tuple[]"
        }
      ],
      "stateMutability": "view",
      "type": "function"
    },
    {
      "inputs": [
        {
          "internalType": "uint256",
          "name": "_id",
          "type": "uint256"
        }
      ],
      "name": "getDonators",
      "outputs": [
        {
          "internalType": "address[]",
          "name": "",
          "type": "address[]"
        },
        {
          "internalType": "uint256[]",
          "name": "",
          "type": "uint256[]"
        }
      ],
      "stateMutability": "view",
      "type": "function"
    },
    {
      "inputs": [],
      "name": "numberOfCampaigns",
      "outputs": [
        {
          "internalType": "uint256",
          "name": "",
          "type": "uint256"
        }
      ],
      "stateMutability": "view",
      "type": "function"
    }
  ],
  "bytecode": "0x6080604052600060015534801561001557600080fd5b50611db5806100256000396000f3fe6080604052600436106100705760003560e01c806342a4fda81161004e57806342a4fda8146101215780635598f8cc1461013d5780639943e3a11461017a578063a6b03633146101b757610070565b806307ca140d146100755780630fa91fa9146100a0578063141961bc146100de575b600080fd5b34801561008157600080fd5b5061008a6101e2565b6040516100979190610ef9565b60405180910390f35b3480156100ac57600080fd5b506100c760048036038101906100c29190610f54565b6101e8565b6040516100d592919061112f565b60405180910390f35b3480156100ea57600080fd5b5061010560048036038101906101009190610f54565b6102ed565b6040516101189796959493929190611205565b60405180910390f35b61013b60048036038101906101369190610f54565b6104e7565b005b34801561014957600080fd5b50610164600480360381019061015f9190610f54565b61064a565b6040516101719190611492565b60405180910390f35b34801561018657600080fd5b506101a1600480360381019061019c9190611615565b610987565b6040516101ae9190610ef9565b60405180910390f35b3480156101c357600080fd5b506101cc610aae565b6040516101d99190611899565b60405180910390f35b60015481565b6060806000806000858152602001908152602001600020905080600701816008018180548060200260200160405190810160405280929190818152602001828054801561028a57602002820191906000526020600020905b8160009054906101000a900473ffffffffffffffffffffffffffffffffffffffff1673ffffffffffffffffffffffffffffffffffffffff1681526020019060010190808311610240575b50505050509150808054806020026020016040519081016040528092919081815260200182805480156102dc57602002820191906000526020600020905b8154815260200190600101908083116102c8575b505050505090509250925050915091565b60006020528060005260406000206000915090508060000160009054906101000a900473ffffffffffffffffffffffffffffffffffffffff1690806001018054610336906118ea565b80601f0160208091040260200160405190810160405280929190818152602001828054610362906118ea565b80156103af5780601f10610384576101008083540402835291602001916103af565b820191906000526020600020905b81548152906001019060200180831161039257829003601f168201915b5050505050908060020180546103c4906118ea565b80601f01602080910402602001604051908101604052809291908181526020018280546103f0906118ea565b801561043d5780601f106104125761010080835404028352916020019161043d565b820191906000526020600020905b81548152906001019060200180831161042057829003601f168201915b50505050509080600301549080600401549080600501805461045e906118ea565b80601f016020809104026020016040519081016040528092919081815260200182805461048a906118ea565b80156104d75780601f106104ac576101008083540402835291602001916104d7565b820191906000526020600020905b8154815290600101906020018083116104ba57829003601f168201915b5050505050908060060154905087565b60003490506000806000848152602001908152602001600020905080600701339080600181540180825580915050600190039060005260206000200160009091909190916101000a81548173ffffffffffffffffffffffffffffffffffffffff021916908373ffffffffffffffffffffffffffffffffffffffff1602179055508060080182908060018154018082558091505060019003906000526020600020016000909190919091505560008160000160009054906101000a900473ffffffffffffffffffffffffffffffffffffffff1673ffffffffffffffffffffffffffffffffffffffff16836040516105dc9061194c565b60006040518083038185875af1925050503d8060008114610619576040519150601f19603f3d011682016040523d82523d6000602084013e61061e565b606091505b505090508015610644578282600601600082825461063c9190611990565b925050819055505b50505050565b610652610e7e565b600080838152602001908152602001600020604051806101200160405290816000820160009054906101000a900473ffffffffffffffffffffffffffffffffffffffff1673ffffffffffffffffffffffffffffffffffffffff1673ffffffffffffffffffffffffffffffffffffffff1681526020016001820180546106d6906118ea565b80601f0160208091040260200160405190810160405280929190818152602001828054610702906118ea565b801561074f5780601f106107245761010080835404028352916020019161074f565b820191906000526020600020905b81548152906001019060200180831161073257829003601f168201915b50505050508152602001600282018054610768906118ea565b80601f0160208091040260200160405190810160405280929190818152602001828054610794906118ea565b80156107e15780601f106107b6576101008083540402835291602001916107e1565b820191906000526020600020905b8154815290600101906020018083116107c457829003601f168201915b50505050508152602001600382015481526020016004820154815260200160058201805461080e906118ea565b80601f016020809104026020016040519081016040528092919081815260200182805461083a906118ea565b80156108875780601f1061085c57610100808354040283529160200191610887565b820191906000526020600020905b81548152906001019060200180831161086a57829003601f168201915b50505050508152602001600682015481526020016007820180548060200260200160405190810160405280929190818152602001828054801561091f57602002820191906000526020600020905b8160009054906101000a900473ffffffffffffffffffffffffffffffffffffffff1673ffffffffffffffffffffffffffffffffffffffff16815260200190600101908083116108d5575b505050505081526020016008820180548060200260200160405190810160405280929190818152602001828054801561097757602002820191906000526020600020905b815481526020019060010190808311610963575b5050505050815250509050919050565b60008060008060015481526020019081526020016000209050428160040154106109e6576040517f08c379a00000000000000000000000000000000000000000000000000000000081526004016109dd90611a36565b60405180910390fd5b878160000160006101000a81548173ffffffffffffffffffffffffffffffffffffffff021916908373ffffffffffffffffffffffffffffffffffffffff16021790555086816001019081610a3a9190611c02565b5085816002019081610a4c9190611c02565b5084816003018190555083816004018190555082816005019081610a709190611c02565b506000816006018190555060016000815480929190610a8e90611cd4565b919050555060018054610aa19190611d1c565b9150509695505050505050565b6060600060015467ffffffffffffffff811115610ace57610acd6114ea565b5b604051908082528060200260200182016040528015610b0757816020015b610af4610e7e565b815260200190600190039081610aec5790505b50905060005b600154811015610e76576000806000838152602001908152602001600020905080604051806101200160405290816000820160009054906101000a900473ffffffffffffffffffffffffffffffffffffffff1673ffffffffffffffffffffffffffffffffffffffff1673ffffffffffffffffffffffffffffffffffffffff168152602001600182018054610ba0906118ea565b80601f0160208091040260200160405190810160405280929190818152602001828054610bcc906118ea565b8015610c195780601f10610bee57610100808354040283529160200191610c19565b820191906000526020600020905b815481529060010190602001808311610bfc57829003601f168201915b50505050508152602001600282018054610c32906118ea565b80601f0160208091040260200160405190810160405280929190818152602001828054610c5e906118ea565b8015610cab5780601f10610c8057610100808354040283529160200191610cab565b820191906000526020600020905b815481529060010190602001808311610c8e57829003601f168201915b505050505081526020016003820154815260200160048201548152602001600582018054610cd8906118ea565b80601f0160208091040260200160405190810160405280929190818152602001828054610d04906118ea565b8015610d515780601f10610d2657610100808354040283529160200191610d51565b820191906000526020600020905b815481529060010190602001808311610d3457829003601f168201915b505050505081526020016006820154815260200160078201805480602002602001604051908101604052809291908181526020018280548015610de957602002820191906000526020600020905b8160009054906101000a900473ffffffffffffffffffffffffffffffffffffffff1673ffffffffffffffffffffffffffffffffffffffff1681526020019060010190808311610d9f575b5050505050815260200160088201805480602002602001604051908101604052809291908181526020018280548015610e4157602002820191906000526020600020905b815481526020019060010190808311610e2d575b505050505081525050838381518110610e5d57610e5c611d50565b5b6020026020010181905250508080600101915050610b0d565b508091505090565b604051806101200160405280600073ffffffffffffffffffffffffffffffffffffffff16815260200160608152602001606081526020016000815260200160008152602001606081526020016000815260200160608152602001606081525090565b6000819050919050565b610ef381610ee0565b82525050565b6000602082019050610f0e6000830184610eea565b92915050565b6000604051905090565b600080fd5b600080fd5b610f3181610ee0565b8114610f3c57600080fd5b50565b600081359050610f4e81610f28565b92915050565b600060208284031215610f6a57610f69610f1e565b5b6000610f7884828501610f3f565b91505092915050565b600081519050919050565b600082825260208201905092915050565b6000819050602082019050919050565b600073ffffffffffffffffffffffffffffffffffffffff82169050919050565b6000610fd882610fad565b9050919050565b610fe881610fcd565b82525050565b6000610ffa8383610fdf565b60208301905092915050565b6000602082019050919050565b600061101e82610f81565b6110288185610f8c565b935061103383610f9d565b8060005b8381101561106457815161104b8882610fee565b975061105683611006565b925050600181019050611037565b5085935050505092915050565b600081519050919050565b600082825260208201905092915050565b6000819050602082019050919050565b6110a681610ee0565b82525050565b60006110b8838361109d565b60208301905092915050565b6000602082019050919050565b60006110dc82611071565b6110e6818561107c565b93506110f18361108d565b8060005b8381101561112257815161110988826110ac565b9750611114836110c4565b9250506001810190506110f5565b5085935050505092915050565b600060408201905081810360008301526111498185611013565b9050818103602083015261115d81846110d1565b90509392505050565b61116f81610fcd565b82525050565b600081519050919050565b600082825260208201905092915050565b60005b838110156111af578082015181840152602081019050611194565b60008484015250505050565b6000601f19601f8301169050919050565b60006111d782611175565b6111e18185611180565b93506111f1818560208601611191565b6111fa816111bb565b840191505092915050565b600060e08201905061121a600083018a611166565b818103602083015261122c81896111cc565b9050818103604083015261124081886111cc565b905061124f6060830187610eea565b61125c6080830186610eea565b81810360a083015261126e81856111cc565b905061127d60c0830184610eea565b98975050505050505050565b600082825260208201905092915050565b60006112a582611175565b6112af8185611289565b93506112bf818560208601611191565b6112c8816111bb565b840191505092915050565b600082825260208201905092915050565b60006112ef82610f81565b6112f981856112d3565b935061130483610f9d565b8060005b8381101561133557815161131c8882610fee565b975061132783611006565b925050600181019050611308565b5085935050505092915050565b600082825260208201905092915050565b600061135e82611071565b6113688185611342565b93506113738361108d565b8060005b838110156113a457815161138b88826110ac565b9750611396836110c4565b925050600181019050611377565b5085935050505092915050565b6000610120830160008301516113ca6000860182610fdf565b50602083015184820360208601526113e2828261129a565b915050604083015184820360408601526113fc828261129a565b9150506060830151611411606086018261109d565b506080830151611424608086018261109d565b5060a083015184820360a086015261143c828261129a565b91505060c083015161145160c086018261109d565b5060e083015184820360e086015261146982826112e4565b9150506101008301518482036101008601526114858282611353565b9150508091505092915050565b600060208201905081810360008301526114ac81846113b1565b905092915050565b6114bd81610fcd565b81146114c857600080fd5b50565b6000813590506114da816114b4565b92915050565b600080fd5b600080fd5b7f4e487b7100000000000000000000000000000000000000000000000000000000600052604160045260246000fd5b611522826111bb565b810181811067ffffffffffffffff82111715611541576115406114ea565b5b80604052505050565b6000611554610f14565b90506115608282611519565b919050565b600067ffffffffffffffff8211156115805761157f6114ea565b5b611589826111bb565b9050602081019050919050565b82818337600083830152505050565b60006115b86115b384611565565b61154a565b9050828152602081018484840111156115d4576115d36114e5565b5b6115df848285611596565b509392505050565b600082601f8301126115fc576115fb6114e0565b5b813561160c8482602086016115a5565b91505092915050565b60008060008060008060c0878903121561163257611631610f1e565b5b600061164089828a016114cb565b965050602087013567ffffffffffffffff81111561166157611660610f23565b5b61166d89828a016115e7565b955050604087013567ffffffffffffffff81111561168e5761168d610f23565b5b61169a89828a016115e7565b94505060606116ab89828a01610f3f565b93505060806116bc89828a01610f3f565b92505060a087013567ffffffffffffffff8111156116dd576116dc610f23565b5b6116e989828a016115e7565b9150509295509295509295565b600081519050919050565b600082825260208201905092915050565b6000819050602082019050919050565b60006101208301600083015161173b6000860182610fdf565b5060208301518482036020860152611753828261129a565b9150506040830151848203604086015261176d828261129a565b9150506060830151611782606086018261109d565b506080830151611795608086018261109d565b5060a083015184820360a08601526117ad828261129a565b91505060c08301516117c260c086018261109d565b5060e083015184820360e08601526117da82826112e4565b9150506101008301518482036101008601526117f68282611353565b9150508091505092915050565b600061180f8383611722565b905092915050565b6000602082019050919050565b600061182f826116f6565b6118398185611701565b93508360208202850161184b85611712565b8060005b8581101561188757848403895281516118688582611803565b945061187383611817565b925060208a0199505060018101905061184f565b50829750879550505050505092915050565b600060208201905081810360008301526118b38184611824565b905092915050565b7f4e487b7100000000000000000000000000000000000000000000000000000000600052602260045260246000fd5b6000600282049050600182168061190257607f821691505b602082108103611915576119146118bb565b5b50919050565b600081905092915050565b50565b600061193660008361191b565b915061194182611926565b600082019050919050565b600061195782611929565b9150819050919050565b7f4e487b7100000000000000000000000000000000000000000000000000000000600052601160045260246000fd5b600061199b82610ee0565b91506119a683610ee0565b92508282019050808211156119be576119bd611961565b5b92915050565b7f54686520646561646c696e652073686f756c642062652061206461746520696e60008201527f2074686520667574757265200000000000000000000000000000000000000000602082015250565b6000611a20602c83611180565b9150611a2b826119c4565b604082019050919050565b60006020820190508181036000830152611a4f81611a13565b9050919050565b60008190508160005260206000209050919050565b60006020601f8301049050919050565b600082821b905092915050565b600060088302611ab87fffffffffffffffffffffffffffffffffffffffffffffffffffffffffffffffff82611a7b565b611ac28683611a7b565b95508019841693508086168417925050509392505050565b6000819050919050565b6000611aff611afa611af584610ee0565b611ada565b610ee0565b9050919050565b6000819050919050565b611b1983611ae4565b611b2d611b2582611b06565b848454611a88565b825550505050565b600090565b611b42611b35565b611b4d818484611b10565b505050565b5b81811015611b7157611b66600082611b3a565b600181019050611b53565b5050565b601f821115611bb657611b8781611a56565b611b9084611a6b565b81016020851015611b9f578190505b611bb3611bab85611a6b565b830182611b52565b50505b505050565b600082821c905092915050565b6000611bd960001984600802611bbb565b1980831691505092915050565b6000611bf28383611bc8565b9150826002028217905092915050565b611c0b82611175565b67ffffffffffffffff811115611c2457611c236114ea565b5b611c2e82546118ea565b611c39828285611b75565b600060209050601f831160018114611c6c5760008415611c5a578287015190505b611c648582611be6565b865550611ccc565b601f198416611c7a86611a56565b60005b82811015611ca257848901518255600182019150602085019450602081019050611c7d565b86831015611cbf5784890151611cbb601f891682611bc8565b8355505b6001600288020188555050505b505050505050565b6000611cdf82610ee0565b91507fffffffffffffffffffffffffffffffffffffffffffffffffffffffffffffffff8203611d1157611d10611961565b5b600182019050919050565b6000611d2782610ee0565b9150611d3283610ee0565b9250828203905081811115611d4a57611d49611961565b5b92915050565b7f4e487b7100000000000000000000000000000000000000000000000000000000600052603260045260246000fdfea2646970667358221220383c5ea5412b3d0d33fb21b51cb41b29fe996084b7031f39200d12199f6628f464736f6c63430008180033",
  "linkReferences": {},
  "deployedLinkReferences": {}
}